{
  "address": "0xe2D72D6b34fe1b3D49E6BDD63704760CFa48e05c",
  "abi": [
    {
      "anonymous": false,
      "inputs": [
        {
          "indexed": true,
          "internalType": "uint256",
          "name": "id",
          "type": "uint256"
        },
        {
          "indexed": true,
          "internalType": "address",
          "name": "author",
          "type": "address"
        },
        {
          "indexed": false,
          "internalType": "string",
          "name": "title",
          "type": "string"
        },
        {
          "indexed": false,
          "internalType": "string",
          "name": "ipfsCID",
          "type": "string"
        },
        {
          "indexed": false,
          "internalType": "string[]",
          "name": "tags",
          "type": "string[]"
        }
      ],
      "name": "RecipeCreated",
      "type": "event"
    },
    {
      "anonymous": false,
      "inputs": [
        {
          "indexed": true,
          "internalType": "uint256",
          "name": "id",
          "type": "uint256"
        },
        {
          "indexed": true,
          "internalType": "address",
          "name": "user",
          "type": "address"
        }
      ],
      "name": "RecipeLiked",
      "type": "event"
    },
    {
      "anonymous": false,
      "inputs": [
        {
          "indexed": true,
          "internalType": "uint256",
          "name": "id",
          "type": "uint256"
        },
        {
          "indexed": true,
          "internalType": "address",
          "name": "from",
          "type": "address"
        },
        {
          "indexed": false,
          "internalType": "uint256",
          "name": "value",
          "type": "uint256"
        }
      ],
      "name": "RecipeTipped",
      "type": "event"
    },
    {
      "anonymous": false,
      "inputs": [
        {
          "indexed": true,
          "internalType": "uint256",
          "name": "id",
          "type": "uint256"
        },
        {
          "indexed": true,
          "internalType": "address",
          "name": "author",
          "type": "address"
        },
        {
          "indexed": false,
          "internalType": "uint256",
          "name": "value",
          "type": "uint256"
        }
      ],
      "name": "TipsWithdrawn",
      "type": "event"
    },
    {
      "inputs": [
        {
          "internalType": "string",
          "name": "title",
          "type": "string"
        },
        {
          "internalType": "string",
          "name": "ipfsCID",
          "type": "string"
        },
        {
          "internalType": "string[]",
          "name": "tags",
          "type": "string[]"
        }
      ],
      "name": "createRecipe",
      "outputs": [
        {
          "internalType": "uint256",
          "name": "id",
          "type": "uint256"
        }
      ],
      "stateMutability": "nonpayable",
      "type": "function"
    },
    {
      "inputs": [
        {
          "internalType": "uint256",
          "name": "id",
          "type": "uint256"
        }
      ],
      "name": "getRecipe",
      "outputs": [
        {
          "internalType": "uint256",
          "name": "",
          "type": "uint256"
        },
        {
          "internalType": "address",
          "name": "",
          "type": "address"
        },
        {
          "internalType": "string",
          "name": "",
          "type": "string"
        },
        {
          "internalType": "string",
          "name": "",
          "type": "string"
        },
        {
          "internalType": "string[]",
          "name": "",
          "type": "string[]"
        },
        {
          "internalType": "euint32",
          "name": "",
          "type": "bytes32"
        },
        {
          "internalType": "euint64",
          "name": "",
          "type": "bytes32"
        },
        {
          "internalType": "uint256",
          "name": "",
          "type": "uint256"
        }
      ],
      "stateMutability": "view",
      "type": "function"
    },
    {
      "inputs": [
        {
          "internalType": "address",
          "name": "user",
          "type": "address"
        }
      ],
      "name": "getUserRecipes",
      "outputs": [
        {
          "internalType": "uint256[]",
          "name": "",
          "type": "uint256[]"
        }
      ],
      "stateMutability": "view",
      "type": "function"
    },
    {
      "inputs": [
        {
          "internalType": "uint256",
          "name": "id",
          "type": "uint256"
        },
        {
          "internalType": "address",
          "name": "user",
          "type": "address"
        }
      ],
      "name": "grantUserDecrypt",
      "outputs": [],
      "stateMutability": "nonpayable",
      "type": "function"
    },
    {
      "inputs": [
        {
          "internalType": "uint256",
          "name": "id",
          "type": "uint256"
        },
        {
          "internalType": "externalEuint32",
          "name": "delta",
          "type": "bytes32"
        },
        {
          "internalType": "bytes",
          "name": "proof",
          "type": "bytes"
        }
      ],
      "name": "likeRecipe",
      "outputs": [],
      "stateMutability": "nonpayable",
      "type": "function"
    },
    {
      "inputs": [
        {
          "internalType": "uint256",
          "name": "",
          "type": "uint256"
        }
      ],
      "name": "pendingTips",
      "outputs": [
        {
          "internalType": "uint256",
          "name": "",
          "type": "uint256"
        }
      ],
      "stateMutability": "view",
      "type": "function"
    },
    {
      "inputs": [],
      "name": "protocolId",
      "outputs": [
        {
          "internalType": "uint256",
          "name": "",
          "type": "uint256"
        }
      ],
      "stateMutability": "pure",
      "type": "function"
    },
    {
      "inputs": [],
      "name": "recipeCount",
      "outputs": [
        {
          "internalType": "uint256",
          "name": "",
          "type": "uint256"
        }
      ],
      "stateMutability": "view",
      "type": "function"
    },
    {
      "inputs": [
        {
          "internalType": "uint256",
          "name": "",
          "type": "uint256"
        }
      ],
      "name": "recipes",
      "outputs": [
        {
          "internalType": "uint256",
          "name": "id",
          "type": "uint256"
        },
        {
          "internalType": "address",
          "name": "author",
          "type": "address"
        },
        {
          "internalType": "string",
          "name": "title",
          "type": "string"
        },
        {
          "internalType": "string",
          "name": "ipfsCID",
          "type": "string"
        },
        {
          "internalType": "euint32",
          "name": "likes",
          "type": "bytes32"
        },
        {
          "internalType": "euint64",
          "name": "tips",
          "type": "bytes32"
        },
        {
          "internalType": "uint256",
          "name": "timestamp",
          "type": "uint256"
        }
      ],
      "stateMutability": "view",
      "type": "function"
    },
    {
      "inputs": [
        {
          "internalType": "uint256",
          "name": "id",
          "type": "uint256"
        }
      ],
      "name": "tipAuthor",
      "outputs": [],
      "stateMutability": "payable",
      "type": "function"
    },
    {
      "inputs": [
        {
          "internalType": "address",
          "name": "",
          "type": "address"
        },
        {
          "internalType": "uint256",
          "name": "",
          "type": "uint256"
        }
      ],
      "name": "userLiked",
      "outputs": [
        {
          "internalType": "bool",
          "name": "",
          "type": "bool"
        }
      ],
      "stateMutability": "view",
      "type": "function"
    },
    {
      "inputs": [
        {
          "internalType": "address",
          "name": "",
          "type": "address"
        },
        {
          "internalType": "uint256",
          "name": "",
          "type": "uint256"
        }
      ],
      "name": "userRecipes",
      "outputs": [
        {
          "internalType": "uint256",
          "name": "",
          "type": "uint256"
        }
      ],
      "stateMutability": "view",
      "type": "function"
    },
    {
      "inputs": [
        {
          "internalType": "uint256",
          "name": "id",
          "type": "uint256"
        }
      ],
      "name": "withdrawTips",
      "outputs": [],
      "stateMutability": "nonpayable",
      "type": "function"
    }
  ],
  "transactionHash": "0xf20e638e753f71a74fcd3bc2b7263c76a62ba0c5ce437d59afea785576325083",
  "args": [],
  "numDeployments": 1,
  "solcInputHash": "2d3a00982ea1923f62853eb8f4c46fb7",
  "bytecode": "0x608060405234801561000f575f5ffd5b5061018a6100ae604080516080810182525f808252602082018190529181018290526060810191909152506040805160808101825273687820221192c5b662b25367f70076a37bc79b6c815273848b0066793bcc60346da1f49049357399b8d595602082015273a02cda4ca3a71d7c46997716f4283aa851c2881291810191909152731364cbbf2cdf5032c47d8226a6f6fbd2afcdacac606082015290565b80517f9e7b61f58c47dc699ac88507c4f5bb9f121c03808c5676a8078fe583e464970080546001600160a01b03199081166001600160a01b039384161790915560208301517f9e7b61f58c47dc699ac88507c4f5bb9f121c03808c5676a8078fe583e46497018054831691841691909117905560408301517f9e7b61f58c47dc699ac88507c4f5bb9f121c03808c5676a8078fe583e46497028054831691841691909117905560608301517f9e7b61f58c47dc699ac88507c4f5bb9f121c03808c5676a8078fe583e46497038054909216921691909117905550565b611c89806101975f395ff3fe6080604052600436106100ce575f3560e01c806369cfdf741161007c578063ba1b613011610057578063ba1b61301461023e578063da1f12ab1461025d578063e6ccbedf14610271578063f8d12a4114610290575f5ffd5b806369cfdf74146101ea578063828c75b4146101ff57806395f41b4d1461022b575f5ffd5b80633f9d5ebe116100ac5780633f9d5ebe14610150578063443c227c1461016f5780634620c53d146101a1575f5ffd5b80630d61b95f146100d25780631bfcd5ec146100f35780631f63658d14610112575b5f5ffd5b3480156100dd575f5ffd5b506100f16100ec3660046114d5565b6102c3565b005b3480156100fe575f5ffd5b506100f161010d366004611507565b6104c2565b34801561011d575f5ffd5b5061013d61012c3660046114d5565b60036020525f908152604090205481565b6040519081526020015b60405180910390f35b34801561015b575f5ffd5b5061013d61016a366004611576565b610586565b34801561017a575f5ffd5b5061018e6101893660046114d5565b610806565b6040516101479796959493929190611674565b3480156101ac575f5ffd5b506101da6101bb3660046116cd565b600260209081525f928352604080842090915290825290205460ff1681565b6040519015158152602001610147565b3480156101f5575f5ffd5b5061013d60045481565b34801561020a575f5ffd5b5061021e6102193660046116f5565b610956565b604051610147919061170e565b6100f16102393660046114d5565b6109bf565b348015610249575f5ffd5b506100f1610258366004611750565b610b1e565b348015610268575f5ffd5b5061271161013d565b34801561027c575f5ffd5b5061013d61028b3660046116cd565b610d00565b34801561029b575f5ffd5b506102af6102aa3660046114d5565b610d2b565b60405161014798979695949392919061179f565b5f811180156102d457506004548111155b6103125760405162461bcd60e51b815260206004820152600a6024820152691a5b9d985b1a59081a5960b21b60448201526064015b60405180910390fd5b5f81815260208190526040902060018101546001600160a01b031633146103695760405162461bcd60e51b815260206004820152600b60248201526a37b7363c9030baba3437b960a91b6044820152606401610309565b5f82815260036020526040902054806103c45760405162461bcd60e51b815260206004820152601360248201527f6e6f7468696e6720746f207769746864726177000000000000000000000000006044820152606401610309565b5f83815260036020526040808220829055600184015490516001600160a01b039091169083908381818185875af1925050503d805f8114610420576040519150601f19603f3d011682016040523d82523d5f602084013e610425565b606091505b50509050806104765760405162461bcd60e51b815260206004820152600f60248201527f7769746864726177206661696c656400000000000000000000000000000000006044820152606401610309565b60018301546040518381526001600160a01b039091169085907f67b36424b8f0f182e5fd54d2f0b384baff13be8a3729cee2b2241936c107f34a9060200160405180910390a350505050565b5f821180156104d357506004548211155b61050c5760405162461bcd60e51b815260206004820152600a6024820152691a5b9d985b1a59081a5960b21b6044820152606401610309565b5f82815260208190526040902060018101546001600160a01b031633146105635760405162461bcd60e51b815260206004820152600b60248201526a37b7363c9030baba3437b960a91b6044820152606401610309565b610571816005015483610fc2565b50610580816006015483610fc2565b50505050565b5f60045f81546105959061186a565b918290555090505f6105a681610fd6565b90505f6105b25f610fe8565b9050604051806101000160405280848152602001336001600160a01b031681526020018a8a8080601f0160208091040260200160405190810160405280939291908181526020018383808284375f92019190915250505090825250604080516020601f8b0181900481028201810190925289815291810191908a908a90819084018382808284375f9201919091525050509082525060200161065486886118c7565b815260208082018590526040808301859052426060909301929092525f86815280825282902083518155908301516001820180547fffffffffffffffffffffffff0000000000000000000000000000000000000000166001600160a01b039092169190911790559082015160028201906106ce9082611a30565b50606082015160038201906106e39082611a30565b50608082015180516106ff91600484019160209091019061141f565b5060a082015160058083019190915560c0830151600683015560e090920151600790910155335f9081526001602081815260408084208054938401815584528184209092018790558683528290529020015461075a90610ffe565b505f8381526020819052604090206006015461077590610ffe565b505f838152602081905260409020600501546107919033610fc2565b505f838152602081905260409020600601546107ad9033610fc2565b50336001600160a01b0316837ff269c8cf5c3d54c95775234342207a597033164b45d162932bcce544168e25df8b8b8b8b8b8b6040516107f296959493929190611b13565b60405180910390a350509695505050505050565b5f6020819052908152604090208054600182015460028301805492936001600160a01b0390921692610837906119ac565b80601f0160208091040260200160405190810160405280929190818152602001828054610863906119ac565b80156108ae5780601f10610885576101008083540402835291602001916108ae565b820191905f5260205f20905b81548152906001019060200180831161089157829003601f168201915b5050505050908060030180546108c3906119ac565b80601f01602080910402602001604051908101604052809291908181526020018280546108ef906119ac565b801561093a5780601f106109115761010080835404028352916020019161093a565b820191905f5260205f20905b81548152906001019060200180831161091d57829003601f168201915b5050505050908060050154908060060154908060070154905087565b6001600160a01b0381165f908152600160209081526040918290208054835181840281018401909452808452606093928301828280156109b357602002820191905f5260205f20905b81548152602001906001019080831161099f575b50505050509050919050565b5f811180156109d057506004548111155b610a095760405162461bcd60e51b815260206004820152600a6024820152691a5b9d985b1a59081a5960b21b6044820152606401610309565b5f3411610a585760405162461bcd60e51b815260206004820152600660248201527f6e6f2074697000000000000000000000000000000000000000000000000000006044820152606401610309565b5f8181526020819052604090206006810154610a74903461100d565b60068201819055610a8490610ffe565b5060068101546001820154610aa291906001600160a01b0316610fc2565b50610ab1816006015433610fc2565b50610ac081600601543361103c565b505f8281526003602052604081208054349290610ade908490611bdf565b9091555050604051348152339083907f175338461ea659f6feeae9729e811079afae8a7a77453039d7908937be8ee6169060200160405180910390a35050565b5f84118015610b2f57506004548411155b610b685760405162461bcd60e51b815260206004820152600a6024820152691a5b9d985b1a59081a5960b21b6044820152606401610309565b335f90815260026020908152604080832087845290915290205460ff1615610bd25760405162461bcd60e51b815260206004820152600d60248201527f616c7265616479206c696b6564000000000000000000000000000000000000006044820152606401610309565b5f610c128484848080601f0160208091040260200160405190810160405280939291908181526020018383808284375f9201919091525061104792505050565b5f86815260208190526040902060050154909150610c309082611054565b5f868152602081905260409020600501819055610c4c90610ffe565b505f8581526020819052604090206005810154600190910154610c7891906001600160a01b0316610fc2565b50335f8181526002602090815260408083208984528252808320805460ff1916600117905590829052902060050154610cb091610fc2565b505f85815260208190526040902060050154610ccc903361103c565b50604051339086907f1459148987255d1efa46ad1851992624b34bd94125ff707a1cc66a92e018b22b905f90a35050505050565b6001602052815f5260405f208181548110610d19575f80fd5b905f5260205f20015f91509150505481565b5f5f60608060605f5f5f5f89118015610d4657506004548911155b610d7f5760405162461bcd60e51b815260206004820152600a6024820152691a5b9d985b1a59081a5960b21b6044820152606401610309565b5f898152602081905260409020805460018201546005830154600684015460078501546002860180546001600160a01b039095169490936003880193600489019391929091908690610dd0906119ac565b80601f0160208091040260200160405190810160405280929190818152602001828054610dfc906119ac565b8015610e475780601f10610e1e57610100808354040283529160200191610e47565b820191905f5260205f20905b815481529060010190602001808311610e2a57829003601f168201915b50505050509550848054610e5a906119ac565b80601f0160208091040260200160405190810160405280929190818152602001828054610e86906119ac565b8015610ed15780601f10610ea857610100808354040283529160200191610ed1565b820191905f5260205f20905b815481529060010190602001808311610eb457829003601f168201915b5050505050945083805480602002602001604051908101604052809291908181526020015f905b82821015610fa0578382905f5260205f20018054610f15906119ac565b80601f0160208091040260200160405190810160405280929190818152602001828054610f41906119ac565b8015610f8c5780601f10610f6357610100808354040283529160200191610f8c565b820191905f5260205f20905b815481529060010190602001808311610f6f57829003601f168201915b505050505081526020019060010190610ef8565b5050505093509850985098509850985098509850985050919395975091939597565b5f610fcd8383611082565b50815b92915050565b5f610fd08263ffffffff166004611109565b5f610fd08267ffffffffffffffff166005611109565b5f6110098230611082565b5090565b5f8261101f5761101c5f610fe8565b92505b6110358367ffffffffffffffff841660016111c6565b9392505050565b5f610fcd83836112a6565b5f611035838360046112ff565b5f82611066576110635f610fd6565b92505b81611077576110745f610fd6565b91505b61103583835f6111c6565b7f9e7b61f58c47dc699ac88507c4f5bb9f121c03808c5676a8078fe583e46497008054604051635ca4b5b160e11b8152600481018590526001600160a01b0384811660248301529091169063b9496b62906044015b5f604051808303815f87803b1580156110ee575f5ffd5b505af1158015611100573d5f5f3e3d5ffd5b50505050505050565b7f9e7b61f58c47dc699ac88507c4f5bb9f121c03808c5676a8078fe583e464970154604051639cd07acb60e01b81525f917f9e7b61f58c47dc699ac88507c4f5bb9f121c03808c5676a8078fe583e4649700916001600160a01b0390911690639cd07acb9061117e9087908790600401611c12565b6020604051808303815f875af115801561119a573d5f5f3e3d5ffd5b505050506040513d601f19601f820116820180604052508101906111be9190611c26565b949350505050565b5f5f82156111d95750600160f81b6111dc565b505f5b5f7f9e7b61f58c47dc699ac88507c4f5bb9f121c03808c5676a8078fe583e4649700600181015460405163022f65e760e31b815260048101899052602481018890527fff00000000000000000000000000000000000000000000000000000000000000851660448201529192506001600160a01b03169063117b2f38906064016020604051808303815f875af1158015611278573d5f5f3e3d5ffd5b505050506040513d601f19601f8201168201806040525081019061129c9190611c26565b9695505050505050565b7f9e7b61f58c47dc699ac88507c4f5bb9f121c03808c5676a8078fe583e46497008054604051630f8e573b60e21b8152600481018590526001600160a01b03848116602483015290911690633e395cec906044016110d7565b7f9e7b61f58c47dc699ac88507c4f5bb9f121c03808c5676a8078fe583e46497015460405163196d0b9b60e01b81525f917f9e7b61f58c47dc699ac88507c4f5bb9f121c03808c5676a8078fe583e4649700916001600160a01b039091169063196d0b9b90611378908890339089908990600401611c3d565b6020604051808303815f875af1158015611394573d5f5f3e3d5ffd5b505050506040513d601f19601f820116820180604052508101906113b89190611c26565b8154604051630f8e573b60e21b8152600481018390523360248201529193506001600160a01b031690633e395cec906044015f604051808303815f87803b158015611401575f5ffd5b505af1158015611413573d5f5f3e3d5ffd5b50505050509392505050565b828054828255905f5260205f20908101928215611463579160200282015b8281111561146357825182906114539082611a30565b509160200191906001019061143d565b506110099291505b80821115611009575f61147e8282611487565b5060010161146b565b508054611493906119ac565b5f825580601f106114a2575050565b601f0160209004905f5260205f20908101906114be91906114c1565b50565b5b80821115611009575f81556001016114c2565b5f602082840312156114e5575f5ffd5b5035919050565b80356001600160a01b0381168114611502575f5ffd5b919050565b5f5f60408385031215611518575f5ffd5b82359150611528602084016114ec565b90509250929050565b5f5f83601f840112611541575f5ffd5b50813567ffffffffffffffff811115611558575f5ffd5b60208301915083602082850101111561156f575f5ffd5b9250929050565b5f5f5f5f5f5f6060878903121561158b575f5ffd5b863567ffffffffffffffff8111156115a1575f5ffd5b6115ad89828a01611531565b909750955050602087013567ffffffffffffffff8111156115cc575f5ffd5b6115d889828a01611531565b909550935050604087013567ffffffffffffffff8111156115f7575f5ffd5b8701601f81018913611607575f5ffd5b803567ffffffffffffffff81111561161d575f5ffd5b8960208260051b8401011115611631575f5ffd5b60208201935080925050509295509295509295565b5f81518084528060208401602086015e5f602082860101526020601f19601f83011685010191505092915050565b8781526001600160a01b038716602082015260e060408201525f61169b60e0830188611646565b82810360608401526116ad8188611646565b6080840196909652505060a081019290925260c090910152949350505050565b5f5f604083850312156116de575f5ffd5b6116e7836114ec565b946020939093013593505050565b5f60208284031215611705575f5ffd5b611035826114ec565b602080825282518282018190525f918401906040840190835b81811015611745578351835260209384019390920191600101611727565b509095945050505050565b5f5f5f5f60608587031215611763575f5ffd5b8435935060208501359250604085013567ffffffffffffffff811115611787575f5ffd5b61179387828801611531565b95989497509550505050565b8881526001600160a01b038816602082015261010060408201525f6117c8610100830189611646565b82810360608401526117da8189611646565b9050828103608084015280875180835260208301915060208160051b84010160208a015f5b8381101561183157601f1986840301855261181b838351611646565b60209586019590935091909101906001016117ff565b505060a08601989098525050505060c081019290925260e09091015295945050505050565b634e487b7160e01b5f52601160045260245ffd5b5f6001820161187b5761187b611856565b5060010190565b634e487b7160e01b5f52604160045260245ffd5b604051601f8201601f1916810167ffffffffffffffff811182821017156118bf576118bf611882565b604052919050565b5f67ffffffffffffffff8311156118e0576118e0611882565b8260051b6118f060208201611896565b84815290830190602081019036831115611908575f5ffd5b845b838110156119a257803567ffffffffffffffff811115611928575f5ffd5b860136601f820112611938575f5ffd5b803567ffffffffffffffff81111561195257611952611882565b611965601f8201601f1916602001611896565b818152366020838501011115611979575f5ffd5b816020840160208301375f6020838301015280865250505060208301925060208101905061190a565b5095945050505050565b600181811c908216806119c057607f821691505b6020821081036119de57634e487b7160e01b5f52602260045260245ffd5b50919050565b601f821115611a2b57805f5260205f20601f840160051c81016020851015611a095750805b601f840160051c820191505b81811015611a28575f8155600101611a15565b50505b505050565b815167ffffffffffffffff811115611a4a57611a4a611882565b611a5e81611a5884546119ac565b846119e4565b6020601f821160018114611a90575f8315611a795750848201515b5f19600385901b1c1916600184901b178455611a28565b5f84815260208120601f198516915b82811015611abf5787850151825560209485019460019092019101611a9f565b5084821015611adc57868401515f19600387901b60f8161c191681555b50505050600190811b01905550565b81835281816020850137505f828201602090810191909152601f909101601f19169091010190565b606081525f611b2660608301888a611aeb565b8281036020840152611b39818789611aeb565b83810360408501528481529050602080820190600586901b830101865f36829003601e19015b88821015611bcd57858403601f190185528235818112611b7d575f5ffd5b8a0160208101903567ffffffffffffffff811115611b99575f5ffd5b803603821315611ba7575f5ffd5b611bb2868284611aeb565b95505050602083019250602085019450600182019150611b5f565b50919c9b505050505050505050505050565b80820180821115610fd057610fd0611856565b60548110611c0e57634e487b7160e01b5f52602160045260245ffd5b9052565b828152604081016110356020830184611bf2565b5f60208284031215611c36575f5ffd5b5051919050565b8481526001600160a01b0384166020820152608060408201525f611c646080830185611646565b9050611c736060830184611bf2565b9594505050505056fea164736f6c634300081b000a",
  "devdoc": {
    "kind": "dev",
    "methods": {},
    "version": 1
  },
  "userdoc": {
    "kind": "user",
    "methods": {},
    "notice": "CookBookFHE - likestipsAmount - IPFS CID IPFS -  externalEuintX + bytes proof FHE.fromExternal() ",
    "version": 1
  },
  "storageLayout": {
    "storage": [
      {
        "astId": 39099,
        "contract": "contracts/CookBookFHE.sol:CookBookFHE",
        "label": "recipes",
        "offset": 0,
        "slot": "0",
        "type": "t_mapping(t_uint256,t_struct(Recipe)39059_storage)"
      },
      {
        "astId": 39104,
        "contract": "contracts/CookBookFHE.sol:CookBookFHE",
        "label": "userRecipes",
        "offset": 0,
        "slot": "1",
        "type": "t_mapping(t_address,t_array(t_uint256)dyn_storage)"
      },
      {
        "astId": 39110,
        "contract": "contracts/CookBookFHE.sol:CookBookFHE",
        "label": "userLiked",
        "offset": 0,
        "slot": "2",
        "type": "t_mapping(t_address,t_mapping(t_uint256,t_bool))"
      },
      {
        "astId": 39114,
        "contract": "contracts/CookBookFHE.sol:CookBookFHE",
        "label": "pendingTips",
        "offset": 0,
        "slot": "3",
        "type": "t_mapping(t_uint256,t_uint256)"
      },
      {
        "astId": 39116,
        "contract": "contracts/CookBookFHE.sol:CookBookFHE",
        "label": "recipeCount",
        "offset": 0,
        "slot": "4",
        "type": "t_uint256"
      }
    ],
    "types": {
      "t_address": {
        "encoding": "inplace",
        "label": "address",
        "numberOfBytes": "20"
      },
      "t_array(t_string_storage)dyn_storage": {
        "base": "t_string_storage",
        "encoding": "dynamic_array",
        "label": "string[]",
        "numberOfBytes": "32"
      },
      "t_array(t_uint256)dyn_storage": {
        "base": "t_uint256",
        "encoding": "dynamic_array",
        "label": "uint256[]",
        "numberOfBytes": "32"
      },
      "t_bool": {
        "encoding": "inplace",
        "label": "bool",
        "numberOfBytes": "1"
      },
      "t_mapping(t_address,t_array(t_uint256)dyn_storage)": {
        "encoding": "mapping",
        "key": "t_address",
        "label": "mapping(address => uint256[])",
        "numberOfBytes": "32",
        "value": "t_array(t_uint256)dyn_storage"
      },
      "t_mapping(t_address,t_mapping(t_uint256,t_bool))": {
        "encoding": "mapping",
        "key": "t_address",
        "label": "mapping(address => mapping(uint256 => bool))",
        "numberOfBytes": "32",
        "value": "t_mapping(t_uint256,t_bool)"
      },
      "t_mapping(t_uint256,t_bool)": {
        "encoding": "mapping",
        "key": "t_uint256",
        "label": "mapping(uint256 => bool)",
        "numberOfBytes": "32",
        "value": "t_bool"
      },
      "t_mapping(t_uint256,t_struct(Recipe)39059_storage)": {
        "encoding": "mapping",
        "key": "t_uint256",
        "label": "mapping(uint256 => struct CookBookFHE.Recipe)",
        "numberOfBytes": "32",
        "value": "t_struct(Recipe)39059_storage"
      },
      "t_mapping(t_uint256,t_uint256)": {
        "encoding": "mapping",
        "key": "t_uint256",
        "label": "mapping(uint256 => uint256)",
        "numberOfBytes": "32",
        "value": "t_uint256"
      },
      "t_string_storage": {
        "encoding": "bytes",
        "label": "string",
        "numberOfBytes": "32"
      },
      "t_struct(Recipe)39059_storage": {
        "encoding": "inplace",
        "label": "struct CookBookFHE.Recipe",
        "members": [
          {
            "astId": 39041,
            "contract": "contracts/CookBookFHE.sol:CookBookFHE",
            "label": "id",
            "offset": 0,
            "slot": "0",
            "type": "t_uint256"
          },
          {
            "astId": 39043,
            "contract": "contracts/CookBookFHE.sol:CookBookFHE",
            "label": "author",
            "offset": 0,
            "slot": "1",
            "type": "t_address"
          },
          {
            "astId": 39045,
            "contract": "contracts/CookBookFHE.sol:CookBookFHE",
            "label": "title",
            "offset": 0,
            "slot": "2",
            "type": "t_string_storage"
          },
          {
            "astId": 39047,
            "contract": "contracts/CookBookFHE.sol:CookBookFHE",
            "label": "ipfsCID",
            "offset": 0,
            "slot": "3",
            "type": "t_string_storage"
          },
          {
            "astId": 39050,
            "contract": "contracts/CookBookFHE.sol:CookBookFHE",
            "label": "tags",
            "offset": 0,
            "slot": "4",
            "type": "t_array(t_string_storage)dyn_storage"
          },
          {
            "astId": 39053,
            "contract": "contracts/CookBookFHE.sol:CookBookFHE",
            "label": "likes",
            "offset": 0,
            "slot": "5",
            "type": "t_userDefinedValueType(euint32)39650"
          },
          {
            "astId": 39056,
            "contract": "contracts/CookBookFHE.sol:CookBookFHE",
            "label": "tips",
            "offset": 0,
            "slot": "6",
            "type": "t_userDefinedValueType(euint64)39658"
          },
          {
            "astId": 39058,
            "contract": "contracts/CookBookFHE.sol:CookBookFHE",
            "label": "timestamp",
            "offset": 0,
            "slot": "7",
            "type": "t_uint256"
          }
        ],
        "numberOfBytes": "256"
      },
      "t_uint256": {
        "encoding": "inplace",
        "label": "uint256",
        "numberOfBytes": "32"
      },
      "t_userDefinedValueType(euint32)39650": {
        "encoding": "inplace",
        "label": "euint32",
        "numberOfBytes": "32"
      },
      "t_userDefinedValueType(euint64)39658": {
        "encoding": "inplace",
        "label": "euint64",
        "numberOfBytes": "32"
      }
    }
  }
}